{
  "contractName": "VQPayments",
  "abi": [
    {
      "constant": true,
      "inputs": [
        {
          "name": "",
          "type": "address"
        },
        {
          "name": "",
          "type": "uint256"
        }
      ],
      "name": "PayerRegistry",
      "outputs": [
        {
          "name": "payer",
          "type": "address"
        },
        {
          "name": "payee",
          "type": "address"
        },
        {
          "name": "manager",
          "type": "address"
        },
        {
          "name": "amount",
          "type": "uint256"
        },
        {
          "name": "status",
          "type": "uint8"
        },
        {
          "name": "ref",
          "type": "bytes32"
        }
      ],
      "payable": false,
      "stateMutability": "view",
      "type": "function"
    },
    {
      "constant": true,
      "inputs": [
        {
          "name": "",
          "type": "address"
        }
      ],
      "name": "Deposits",
      "outputs": [
        {
          "name": "",
          "type": "uint256"
        }
      ],
      "payable": false,
      "stateMutability": "view",
      "type": "function"
    },
    {
      "constant": true,
      "inputs": [],
      "name": "owner",
      "outputs": [
        {
          "name": "",
          "type": "address"
        }
      ],
      "payable": false,
      "stateMutability": "view",
      "type": "function"
    },
    {
      "constant": true,
      "inputs": [],
      "name": "is_frozen",
      "outputs": [
        {
          "name": "",
          "type": "bool"
        }
      ],
      "payable": false,
      "stateMutability": "view",
      "type": "function"
    },
    {
      "constant": true,
      "inputs": [
        {
          "name": "",
          "type": "address"
        },
        {
          "name": "",
          "type": "uint256"
        }
      ],
      "name": "PayeeRegistry",
      "outputs": [
        {
          "name": "payer",
          "type": "address"
        },
        {
          "name": "tx_index",
          "type": "uint256"
        }
      ],
      "payable": false,
      "stateMutability": "view",
      "type": "function"
    },
    {
      "inputs": [],
      "payable": false,
      "stateMutability": "nonpayable",
      "type": "constructor"
    },
    {
      "constant": false,
      "inputs": [
        {
          "name": "payee",
          "type": "address"
        },
        {
          "name": "manager",
          "type": "address"
        },
        {
          "name": "ref",
          "type": "bytes32"
        }
      ],
      "name": "createTransaction",
      "outputs": [
        {
          "name": "",
          "type": "bool"
        }
      ],
      "payable": true,
      "stateMutability": "payable",
      "type": "function"
    },
    {
      "constant": false,
      "inputs": [
        {
          "name": "txID",
          "type": "uint256"
        }
      ],
      "name": "acceptTransaction",
      "outputs": [
        {
          "name": "",
          "type": "bool"
        }
      ],
      "payable": false,
      "stateMutability": "nonpayable",
      "type": "function"
    },
    {
      "constant": false,
      "inputs": [
        {
          "name": "txID",
          "type": "uint256"
        }
      ],
      "name": "cancelTransaction",
      "outputs": [
        {
          "name": "",
          "type": "bool"
        }
      ],
      "payable": false,
      "stateMutability": "nonpayable",
      "type": "function"
    },
    {
      "constant": true,
      "inputs": [
        {
          "name": "user",
          "type": "address"
        },
        {
          "name": "userType",
          "type": "uint256"
        }
      ],
      "name": "getUserTransactionsCount",
      "outputs": [
        {
          "name": "",
          "type": "uint256"
        }
      ],
      "payable": false,
      "stateMutability": "view",
      "type": "function"
    },
    {
      "constant": true,
      "inputs": [
        {
          "name": "user",
          "type": "address"
        },
        {
          "name": "userType",
          "type": "uint256"
        },
        {
          "name": "txID",
          "type": "uint256"
        }
      ],
      "name": "getUserTransactionByID",
      "outputs": [
        {
          "name": "",
          "type": "address"
        },
        {
          "name": "",
          "type": "address"
        },
        {
          "name": "",
          "type": "address"
        },
        {
          "name": "",
          "type": "uint256"
        },
        {
          "name": "",
          "type": "bytes32"
        },
        {
          "name": "",
          "type": "bytes32"
        }
      ],
      "payable": false,
      "stateMutability": "view",
      "type": "function"
    },
    {
      "constant": true,
      "inputs": [
        {
          "name": "payer",
          "type": "address"
        },
        {
          "name": "txID",
          "type": "uint256"
        }
      ],
      "name": "getTransactionStatus",
      "outputs": [
        {
          "name": "",
          "type": "bytes32"
        }
      ],
      "payable": false,
      "stateMutability": "view",
      "type": "function"
    },
    {
      "constant": false,
      "inputs": [
        {
          "name": "txID",
          "type": "uint256"
        }
      ],
      "name": "releaseDeposit",
      "outputs": [],
      "payable": false,
      "stateMutability": "nonpayable",
      "type": "function"
    },
    {
      "constant": false,
      "inputs": [
        {
          "name": "txID",
          "type": "uint256"
        }
      ],
      "name": "refundDeposit",
      "outputs": [],
      "payable": false,
      "stateMutability": "nonpayable",
      "type": "function"
    },
    {
      "constant": false,
      "inputs": [],
      "name": "freezeContract",
      "outputs": [],
      "payable": false,
      "stateMutability": "nonpayable",
      "type": "function"
    },
    {
      "constant": false,
      "inputs": [],
      "name": "withdrawDeposits",
      "outputs": [],
      "payable": false,
      "stateMutability": "nonpayable",
      "type": "function"
    }
  ],
  "bytecode": "0x6060604052341561000f57600080fd5b336000806101000a81548173ffffffffffffffffffffffffffffffffffffffff021916908373ffffffffffffffffffffffffffffffffffffffff1602179055506128f48061005e6000396000f3006060604052600436106100db576000357c0100000000000000000000000000000000000000000000000000000000900463ffffffff1680631d60ba8c146100e05780633380c0d8146101f35780633ee2d7c21461022e57806350c824ed1461027b57806361571ab5146102ed5780636de0de7e146104035780637cf2ed22146104265780638da5cb5b1461043b578063913a04fc1461049057806394116e2e146104e65780639740705514610513578063a0f109c514610571578063a584a9b514610594578063a9dd6895146105a9578063aadb0872146105e4575b600080fd5b34156100eb57600080fd5b610120600480803573ffffffffffffffffffffffffffffffffffffffff1690602001909190803590602001909190505061066d565b604051808773ffffffffffffffffffffffffffffffffffffffff1673ffffffffffffffffffffffffffffffffffffffff1681526020018673ffffffffffffffffffffffffffffffffffffffff1673ffffffffffffffffffffffffffffffffffffffff1681526020018573ffffffffffffffffffffffffffffffffffffffff1673ffffffffffffffffffffffffffffffffffffffff1681526020018481526020018360048111156101cc57fe5b60ff1681526020018260001916600019168152602001965050505050505060405180910390f35b34156101fe57600080fd5b6102146004808035906020019091905050610732565b604051808215151515815260200191505060405180910390f35b341561023957600080fd5b610265600480803573ffffffffffffffffffffffffffffffffffffffff169060200190919050506109b0565b6040518082815260200191505060405180910390f35b6102d3600480803573ffffffffffffffffffffffffffffffffffffffff1690602001909190803573ffffffffffffffffffffffffffffffffffffffff16906020019091908035600019169060200190919050506109c8565b604051808215151515815260200191505060405180910390f35b34156102f857600080fd5b610336600480803573ffffffffffffffffffffffffffffffffffffffff16906020019091908035906020019091908035906020019091905050610e50565b604051808773ffffffffffffffffffffffffffffffffffffffff1673ffffffffffffffffffffffffffffffffffffffff1681526020018673ffffffffffffffffffffffffffffffffffffffff1673ffffffffffffffffffffffffffffffffffffffff1681526020018573ffffffffffffffffffffffffffffffffffffffff1673ffffffffffffffffffffffffffffffffffffffff16815260200184815260200183600019166000191681526020018260001916600019168152602001965050505050505060405180910390f35b341561040e57600080fd5b6104246004808035906020019091905050611369565b005b341561043157600080fd5b610439611974565b005b341561044657600080fd5b61044e611acd565b604051808273ffffffffffffffffffffffffffffffffffffffff1673ffffffffffffffffffffffffffffffffffffffff16815260200191505060405180910390f35b341561049b57600080fd5b6104d0600480803573ffffffffffffffffffffffffffffffffffffffff16906020019091908035906020019091905050611af2565b6040518082815260200191505060405180910390f35b34156104f157600080fd5b6104f9611ba0565b604051808215151515815260200191505060405180910390f35b341561051e57600080fd5b610553600480803573ffffffffffffffffffffffffffffffffffffffff16906020019091908035906020019091905050611bb3565b60405180826000191660001916815260200191505060405180910390f35b341561057c57600080fd5b6105926004808035906020019091905050611f38565b005b341561059f57600080fd5b6105a7612288565b005b34156105b457600080fd5b6105ca6004808035906020019091905050612300565b604051808215151515815260200191505060405180910390f35b34156105ef57600080fd5b610624600480803573ffffffffffffffffffffffffffffffffffffffff16906020019091908035906020019091905050612647565b604051808373ffffffffffffffffffffffffffffffffffffffff1673ffffffffffffffffffffffffffffffffffffffff1681526020018281526020019250505060405180910390f35b60016020528160005260406000208181548110151561068857fe5b9060005260206000209060060201600091509150508060000160009054906101000a900473ffffffffffffffffffffffffffffffffffffffff16908060010160009054906101000a900473ffffffffffffffffffffffffffffffffffffffff16908060020160009054906101000a900473ffffffffffffffffffffffffffffffffffffffff16908060030154908060040160009054906101000a900460ff16908060050154905086565b600081600160003373ffffffffffffffffffffffffffffffffffffffff1673ffffffffffffffffffffffffffffffffffffffff1681526020019081526020016000208181548110151561078157fe5b906000526020600020906006020160000160009054906101000a900473ffffffffffffffffffffffffffffffffffffffff1673ffffffffffffffffffffffffffffffffffffffff163373ffffffffffffffffffffffffffffffffffffffff161415156107ec57600080fd5b600060048111156107f957fe5b600160003373ffffffffffffffffffffffffffffffffffffffff1673ffffffffffffffffffffffffffffffffffffffff1681526020019081526020016000208481548110151561084557fe5b906000526020600020906006020160040160009054906101000a900460ff16600481111561086f57fe5b1480151561087c57600080fd5b6004600160003373ffffffffffffffffffffffffffffffffffffffff1673ffffffffffffffffffffffffffffffffffffffff168152602001908152602001600020858154811015156108ca57fe5b906000526020600020906006020160040160006101000a81548160ff021916908360048111156108f657fe5b0217905550600160003373ffffffffffffffffffffffffffffffffffffffff1673ffffffffffffffffffffffffffffffffffffffff1681526020019081526020016000208481548110151561094757fe5b906000526020600020906006020160030154600360003373ffffffffffffffffffffffffffffffffffffffff1673ffffffffffffffffffffffffffffffffffffffff16815260200190815260200160002060008282540192505081905550600192505050919050565b60036020528060005260406000206000915090505481565b60006109d26126a7565b6109da61272e565b60001515600060149054906101000a900460ff161515148015156109fd57600080fd5b60003411801515610a0d57600080fd5b61019034811515610a1a57fe5b04600360008060009054906101000a900473ffffffffffffffffffffffffffffffffffffffff1673ffffffffffffffffffffffffffffffffffffffff1673ffffffffffffffffffffffffffffffffffffffff1681526020019081526020016000206000828254019250508190555033846000019073ffffffffffffffffffffffffffffffffffffffff16908173ffffffffffffffffffffffffffffffffffffffff168152505087846020019073ffffffffffffffffffffffffffffffffffffffff16908173ffffffffffffffffffffffffffffffffffffffff168152505086846040019073ffffffffffffffffffffffffffffffffffffffff16908173ffffffffffffffffffffffffffffffffffffffff168152505061019034811515610b3d57fe5b043403846060018181525050600084608001906004811115610b5b57fe5b90816004811115610b6857fe5b81525050858460a00190600019169081600019168152505033836000019073ffffffffffffffffffffffffffffffffffffffff16908173ffffffffffffffffffffffffffffffffffffffff1681525050600160003373ffffffffffffffffffffffffffffffffffffffff1673ffffffffffffffffffffffffffffffffffffffff16815260200190815260200160002080549050836020018181525050600160003373ffffffffffffffffffffffffffffffffffffffff1673ffffffffffffffffffffffffffffffffffffffff1681526020019081526020016000208054806001018281610c55919061275e565b9160005260206000209060060201600086909190915060008201518160000160006101000a81548173ffffffffffffffffffffffffffffffffffffffff021916908373ffffffffffffffffffffffffffffffffffffffff16021790555060208201518160010160006101000a81548173ffffffffffffffffffffffffffffffffffffffff021916908373ffffffffffffffffffffffffffffffffffffffff16021790555060408201518160020160006101000a81548173ffffffffffffffffffffffffffffffffffffffff021916908373ffffffffffffffffffffffffffffffffffffffff1602179055506060820151816003015560808201518160040160006101000a81548160ff02191690836004811115610d6e57fe5b021790555060a08201518160050190600019169055505050600260008973ffffffffffffffffffffffffffffffffffffffff1673ffffffffffffffffffffffffffffffffffffffff1681526020019081526020016000208054806001018281610dd79190612790565b9160005260206000209060020201600085909190915060008201518160000160006101000a81548173ffffffffffffffffffffffffffffffffffffffff021916908373ffffffffffffffffffffffffffffffffffffffff1602179055506020820151816001015550505060019450505050509392505050565b6000806000806000806000610e636126a7565b60008a141561103057600160008c73ffffffffffffffffffffffffffffffffffffffff1673ffffffffffffffffffffffffffffffffffffffff16815260200190815260200160002089815481101515610eb857fe5b906000526020600020906006020160c060405190810160405290816000820160009054906101000a900473ffffffffffffffffffffffffffffffffffffffff1673ffffffffffffffffffffffffffffffffffffffff1673ffffffffffffffffffffffffffffffffffffffff1681526020016001820160009054906101000a900473ffffffffffffffffffffffffffffffffffffffff1673ffffffffffffffffffffffffffffffffffffffff1673ffffffffffffffffffffffffffffffffffffffff1681526020016002820160009054906101000a900473ffffffffffffffffffffffffffffffffffffffff1673ffffffffffffffffffffffffffffffffffffffff1673ffffffffffffffffffffffffffffffffffffffff168152602001600382015481526020016004820160009054906101000a900460ff166004811115610ffc57fe5b600481111561100757fe5b8152602001600582015460001916600019168152505090506110298b8a611bb3565b9150611335565b60018a14156113345760016000600260008e73ffffffffffffffffffffffffffffffffffffffff1673ffffffffffffffffffffffffffffffffffffffff1681526020019081526020016000208b81548110151561108957fe5b906000526020600020906002020160000160009054906101000a900473ffffffffffffffffffffffffffffffffffffffff1673ffffffffffffffffffffffffffffffffffffffff1673ffffffffffffffffffffffffffffffffffffffff168152602001908152602001600020600260008d73ffffffffffffffffffffffffffffffffffffffff1673ffffffffffffffffffffffffffffffffffffffff1681526020019081526020016000208a81548110151561114157fe5b90600052602060002090600202016001015481548110151561115f57fe5b906000526020600020906006020160c060405190810160405290816000820160009054906101000a900473ffffffffffffffffffffffffffffffffffffffff1673ffffffffffffffffffffffffffffffffffffffff1673ffffffffffffffffffffffffffffffffffffffff1681526020016001820160009054906101000a900473ffffffffffffffffffffffffffffffffffffffff1673ffffffffffffffffffffffffffffffffffffffff1673ffffffffffffffffffffffffffffffffffffffff1681526020016002820160009054906101000a900473ffffffffffffffffffffffffffffffffffffffff1673ffffffffffffffffffffffffffffffffffffffff1673ffffffffffffffffffffffffffffffffffffffff168152602001600382015481526020016004820160009054906101000a900460ff1660048111156112a357fe5b60048111156112ae57fe5b8152602001600582015460001916600019168152505090506113318160000151600260008e73ffffffffffffffffffffffffffffffffffffffff1673ffffffffffffffffffffffffffffffffffffffff1681526020019081526020016000208b81548110151561131a57fe5b906000526020600020906002020160010154611bb3565b91505b5b8060000151816020015182604001518360600151858560a00151975097509750975097509750505093975093979195509350565b6000816000600260003373ffffffffffffffffffffffffffffffffffffffff1673ffffffffffffffffffffffffffffffffffffffff168152602001908152602001600020828154811015156113ba57fe5b9060005260206000209060020201600101541115156113d857600080fd5b60016000600260003373ffffffffffffffffffffffffffffffffffffffff1673ffffffffffffffffffffffffffffffffffffffff1681526020019081526020016000208581548110151561142857fe5b906000526020600020906002020160000160009054906101000a900473ffffffffffffffffffffffffffffffffffffffff1673ffffffffffffffffffffffffffffffffffffffff1673ffffffffffffffffffffffffffffffffffffffff1681526020019081526020016000208054905083108015156114a657600080fd5b600160048111156114b357fe5b60016000600260003373ffffffffffffffffffffffffffffffffffffffff1673ffffffffffffffffffffffffffffffffffffffff1681526020019081526020016000208781548110151561150357fe5b906000526020600020906002020160000160009054906101000a900473ffffffffffffffffffffffffffffffffffffffff1673ffffffffffffffffffffffffffffffffffffffff1673ffffffffffffffffffffffffffffffffffffffff168152602001908152602001600020600260003373ffffffffffffffffffffffffffffffffffffffff1673ffffffffffffffffffffffffffffffffffffffff168152602001908152602001600020868154811015156115bb57fe5b9060005260206000209060020201600101548154811015156115d957fe5b906000526020600020906006020160040160009054906101000a900460ff16600481111561160357fe5b1480151561161057600080fd5b600360016000600260003373ffffffffffffffffffffffffffffffffffffffff1673ffffffffffffffffffffffffffffffffffffffff1681526020019081526020016000208881548110151561166257fe5b906000526020600020906002020160000160009054906101000a900473ffffffffffffffffffffffffffffffffffffffff1673ffffffffffffffffffffffffffffffffffffffff1673ffffffffffffffffffffffffffffffffffffffff168152602001908152602001600020600260003373ffffffffffffffffffffffffffffffffffffffff1673ffffffffffffffffffffffffffffffffffffffff1681526020019081526020016000208781548110151561171a57fe5b90600052602060002090600202016001015481548110151561173857fe5b906000526020600020906006020160040160006101000a81548160ff0219169083600481111561176457fe5b021790555060016000600260003373ffffffffffffffffffffffffffffffffffffffff1673ffffffffffffffffffffffffffffffffffffffff168152602001908152602001600020878154811015156117b957fe5b906000526020600020906002020160000160009054906101000a900473ffffffffffffffffffffffffffffffffffffffff1673ffffffffffffffffffffffffffffffffffffffff1673ffffffffffffffffffffffffffffffffffffffff168152602001908152602001600020600260003373ffffffffffffffffffffffffffffffffffffffff1673ffffffffffffffffffffffffffffffffffffffff1681526020019081526020016000208681548110151561187157fe5b90600052602060002090600202016001015481548110151561188f57fe5b90600052602060002090600602016003015493508360036000600260003373ffffffffffffffffffffffffffffffffffffffff1673ffffffffffffffffffffffffffffffffffffffff168152602001908152602001600020888154811015156118f457fe5b906000526020600020906002020160000160009054906101000a900473ffffffffffffffffffffffffffffffffffffffff1673ffffffffffffffffffffffffffffffffffffffff1673ffffffffffffffffffffffffffffffffffffffff168152602001908152602001600020600082825401925050819055505050505050565b600080600360003373ffffffffffffffffffffffffffffffffffffffff1673ffffffffffffffffffffffffffffffffffffffff168152602001908152602001600020541115156119c357600080fd5b600360003373ffffffffffffffffffffffffffffffffffffffff1673ffffffffffffffffffffffffffffffffffffffff1681526020019081526020016000205490506000600360003373ffffffffffffffffffffffffffffffffffffffff1673ffffffffffffffffffffffffffffffffffffffff168152602001908152602001600020819055503373ffffffffffffffffffffffffffffffffffffffff166108fc829081150290604051600060405180830381858888f193505050501515611aca5780600360003373ffffffffffffffffffffffffffffffffffffffff1673ffffffffffffffffffffffffffffffffffffffff168152602001908152602001600020819055505b50565b6000809054906101000a900473ffffffffffffffffffffffffffffffffffffffff1681565b600080821415611b4657600160008473ffffffffffffffffffffffffffffffffffffffff1673ffffffffffffffffffffffffffffffffffffffff168152602001908152602001600020805490509050611b9a565b6001821415611b9957600260008473ffffffffffffffffffffffffffffffffffffffff1673ffffffffffffffffffffffffffffffffffffffff168152602001908152602001600020805490509050611b9a565b5b92915050565b600060149054906101000a900460ff1681565b6000806000905060006004811115611bc757fe5b600160008673ffffffffffffffffffffffffffffffffffffffff1673ffffffffffffffffffffffffffffffffffffffff16815260200190815260200160002084815481101515611c1357fe5b906000526020600020906006020160040160009054906101000a900460ff166004811115611c3d57fe5b1415611c6b577f50656e64696e67000000000000000000000000000000000000000000000000009050611f2e565b60016004811115611c7857fe5b600160008673ffffffffffffffffffffffffffffffffffffffff1673ffffffffffffffffffffffffffffffffffffffff16815260200190815260200160002084815481101515611cc457fe5b906000526020600020906006020160040160009054906101000a900460ff166004811115611cee57fe5b1415611d1c577f41636365707465640000000000000000000000000000000000000000000000009050611f2d565b600480811115611d2857fe5b600160008673ffffffffffffffffffffffffffffffffffffffff1673ffffffffffffffffffffffffffffffffffffffff16815260200190815260200160002084815481101515611d7457fe5b906000526020600020906006020160040160009054906101000a900460ff166004811115611d9e57fe5b1415611dcc577f43616e63656c6c656400000000000000000000000000000000000000000000009050611f2c565b60026004811115611dd957fe5b600160008673ffffffffffffffffffffffffffffffffffffffff1673ffffffffffffffffffffffffffffffffffffffff16815260200190815260200160002084815481101515611e2557fe5b906000526020600020906006020160040160009054906101000a900460ff166004811115611e4f57fe5b1415611e7d577f50616964000000000000000000000000000000000000000000000000000000009050611f2b565b60036004811115611e8a57fe5b600160008673ffffffffffffffffffffffffffffffffffffffff1673ffffffffffffffffffffffffffffffffffffffff16815260200190815260200160002084815481101515611ed657fe5b906000526020600020906006020160040160009054906101000a900460ff166004811115611f0057fe5b1415611f2a577f526566756e64656400000000000000000000000000000000000000000000000090505b5b5b5b5b8091505092915050565b60008082600160003373ffffffffffffffffffffffffffffffffffffffff1673ffffffffffffffffffffffffffffffffffffffff16815260200190815260200160002081815481101515611f8857fe5b906000526020600020906006020160000160009054906101000a900473ffffffffffffffffffffffffffffffffffffffff1673ffffffffffffffffffffffffffffffffffffffff163373ffffffffffffffffffffffffffffffffffffffff16141515611ff357600080fd5b600160003373ffffffffffffffffffffffffffffffffffffffff1673ffffffffffffffffffffffffffffffffffffffff16815260200190815260200160002080549050841080151561204457600080fd5b6001600481111561205157fe5b600160003373ffffffffffffffffffffffffffffffffffffffff1673ffffffffffffffffffffffffffffffffffffffff1681526020019081526020016000208681548110151561209d57fe5b906000526020600020906006020160040160009054906101000a900460ff1660048111156120c757fe5b148015156120d457600080fd5b6002600160003373ffffffffffffffffffffffffffffffffffffffff1673ffffffffffffffffffffffffffffffffffffffff1681526020019081526020016000208781548110151561212257fe5b906000526020600020906006020160040160006101000a81548160ff0219169083600481111561214e57fe5b0217905550600160003373ffffffffffffffffffffffffffffffffffffffff1673ffffffffffffffffffffffffffffffffffffffff1681526020019081526020016000208681548110151561219f57fe5b906000526020600020906006020160010160009054906101000a900473ffffffffffffffffffffffffffffffffffffffff169450600160003373ffffffffffffffffffffffffffffffffffffffff1673ffffffffffffffffffffffffffffffffffffffff1681526020019081526020016000208681548110151561221f57fe5b906000526020600020906006020160030154935083600360008773ffffffffffffffffffffffffffffffffffffffff1673ffffffffffffffffffffffffffffffffffffffff16815260200190815260200160002060008282540192505081905550505050505050565b6000809054906101000a900473ffffffffffffffffffffffffffffffffffffffff1673ffffffffffffffffffffffffffffffffffffffff163373ffffffffffffffffffffffffffffffffffffffff161415156122e357600080fd5b6001600060146101000a81548160ff021916908315150217905550565b6000806000836000600260003373ffffffffffffffffffffffffffffffffffffffff1673ffffffffffffffffffffffffffffffffffffffff1681526020019081526020016000208281548110151561235457fe5b90600052602060002090600202016001015411151561237257600080fd5b6000600481111561237f57fe5b60016000600260003373ffffffffffffffffffffffffffffffffffffffff1673ffffffffffffffffffffffffffffffffffffffff168152602001908152602001600020888154811015156123cf57fe5b906000526020600020906002020160000160009054906101000a900473ffffffffffffffffffffffffffffffffffffffff1673ffffffffffffffffffffffffffffffffffffffff1673ffffffffffffffffffffffffffffffffffffffff168152602001908152602001600020600260003373ffffffffffffffffffffffffffffffffffffffff1673ffffffffffffffffffffffffffffffffffffffff1681526020019081526020016000208781548110151561248757fe5b9060005260206000209060020201600101548154811015156124a557fe5b906000526020600020906006020160040160009054906101000a900460ff1660048111156124cf57fe5b148015156124dc57600080fd5b600260003373ffffffffffffffffffffffffffffffffffffffff1673ffffffffffffffffffffffffffffffffffffffff1681526020019081526020016000208681548110151561252857fe5b906000526020600020906002020160000160009054906101000a900473ffffffffffffffffffffffffffffffffffffffff169350600260003373ffffffffffffffffffffffffffffffffffffffff1673ffffffffffffffffffffffffffffffffffffffff168152602001908152602001600020868154811015156125a857fe5b906000526020600020906002020160010154925060018060008673ffffffffffffffffffffffffffffffffffffffff1673ffffffffffffffffffffffffffffffffffffffff1681526020019081526020016000208481548110151561260957fe5b906000526020600020906006020160040160006101000a81548160ff0219169083600481111561263557fe5b02179055506001945050505050919050565b60026020528160005260406000208181548110151561266257fe5b9060005260206000209060020201600091509150508060000160009054906101000a900473ffffffffffffffffffffffffffffffffffffffff16908060010154905082565b60c060405190810160405280600073ffffffffffffffffffffffffffffffffffffffff168152602001600073ffffffffffffffffffffffffffffffffffffffff168152602001600073ffffffffffffffffffffffffffffffffffffffff168152602001600081526020016000600481111561271e57fe5b8152602001600080191681525090565b6040805190810160405280600073ffffffffffffffffffffffffffffffffffffffff168152602001600081525090565b81548183558181151161278b5760060281600602836000526020600020918201910161278a91906127c2565b5b505050565b8154818355818115116127bd576002028160020283600052602060002091820191016127bc919061287a565b5b505050565b61287791905b8082111561287357600080820160006101000a81549073ffffffffffffffffffffffffffffffffffffffff02191690556001820160006101000a81549073ffffffffffffffffffffffffffffffffffffffff02191690556002820160006101000a81549073ffffffffffffffffffffffffffffffffffffffff021916905560038201600090556004820160006101000a81549060ff02191690556005820160009055506006016127c8565b5090565b90565b6128c591905b808211156128c157600080820160006101000a81549073ffffffffffffffffffffffffffffffffffffffff0219169055600182016000905550600201612880565b5090565b905600a165627a7a72305820269ce7db0c8893450a19631d2f443653008dfcd5d054bdfdcdbf3ab39843862a0029",
  "source": "pragma solidity ^0.4.2;\n\ncontract VQPayments\n{       \n    //@todo\n    //check fee calculation formula\n    //expireDate: this either requires a polling from outside or poor man's cron\n    //like every function runs the job but this will mean that it will constantly require someone accessing contract\n    //otherwise it does not get executed and the money stays non-expired state even though the time has already passed\n\n    //KEEP IN MIND\n    //16 variable limit on functions\n    //large contract size causing out of gas error so always refactor\n    \n    address public owner;\n    bool public is_frozen;\n\n    modifier onlyOwner()\n    {\n        require(msg.sender == owner);\n        _;\n    }\n\n    modifier onlyPayer(uint txID)\n    {\n        require(msg.sender == PayerRegistry[msg.sender][txID].payer);\n        _;\n    }\n\n    modifier onlyPayee(uint txID)\n    {\n        require(PayeeRegistry[msg.sender][txID].tx_index > 0);\n        _;\n    }\n\n    modifier onlyWhen(bool condition)\n    {\n        require(condition);\n        _;\n    }\n\n    modifier hasDeposit()\n    {\n        require(Deposits[msg.sender] > 0);\n        _;\n    } \n    \n    modifier onlyBefore(uint time)\n    {\n        require(now < time);\n        _;\n    }\n\n    modifier onlyAfter(uint time)\n    {\n        require(now > time);\n        _;\n    }\n\n    enum TransactionStatus\n    {\n        PENDING,\n        ACCEPTED,\n        PAID,\n        REFUNDED,\n        CANCELLED\n    }\n\n    enum UserType\n    {\n        PAYER,\n        PAYEE\n    }\n\n    struct Transaction\n    {    \n        address payer;\n        address payee;\n        address manager;\n\n        uint amount;\n\n        TransactionStatus status;\n\n        bytes32 ref;\n    }\n\n    struct TransactionReference\n    {                        \n        address payer;\n        uint tx_index;\n    }\n\n    mapping(address => Transaction[]) public PayerRegistry;\n    mapping(address => TransactionReference[]) public PayeeRegistry;        \n    mapping(address => uint) public Deposits;\n\n    function VQPayments() public\n    {\n        owner = msg.sender;\n    }\n\n    function createTransaction(\n        address payee,\n        address manager,\n        bytes32 ref\n    )\n        public\n        payable\n        onlyWhen(is_frozen == false)\n        onlyWhen(msg.value > 0)\n        returns (\n            bool\n        )\n    {\n        Transaction memory blankTransaction;\n        TransactionReference memory blankTransactionReference;\n\n        Deposits[owner] += msg.value / 400; \n        \n        blankTransaction.payer = msg.sender;\n        blankTransaction.payee = payee;\n        blankTransaction.manager = manager;\n        blankTransaction.amount = msg.value - (msg.value/400);\n        blankTransaction.status = TransactionStatus.PENDING;\n        blankTransaction.ref = ref;\n\n        blankTransactionReference.payer = msg.sender;\n        blankTransactionReference.tx_index = PayerRegistry[msg.sender].length;\n\n        PayerRegistry[msg.sender].push(blankTransaction);\n        PayeeRegistry[payee].push(blankTransactionReference);\n        \n        return true;\n    }\n\n    function acceptTransaction(\n        uint txID\n    )\n        public\n        onlyPayee(txID)\n        onlyWhen(PayerRegistry[\n                PayeeRegistry[msg.sender][txID].payer\n            ][\n                PayeeRegistry[msg.sender][txID].tx_index\n            ].status == TransactionStatus.PENDING)\n        returns (\n            bool\n        )\n    {\n        address payer = PayeeRegistry[msg.sender][txID].payer;\n        uint _txID = PayeeRegistry[msg.sender][txID].tx_index;\n\n        PayerRegistry[payer][_txID].status = TransactionStatus.ACCEPTED;\n\n        return true;\n    }\n\n    function cancelTransaction(\n        uint txID\n    )\n        public\n        onlyPayer(txID)\n        onlyWhen(PayerRegistry[msg.sender][txID].status == TransactionStatus.PENDING)\n        returns (\n            bool\n        )\n    {\n        PayerRegistry[msg.sender][txID].status = TransactionStatus.CANCELLED;\n        \n        Deposits[msg.sender] += PayerRegistry[msg.sender][txID].amount;\n\n        return true;\n    }\n\n    function getUserTransactionsCount(\n        address user,\n        uint userType\n    )\n        public\n        view\n        returns (\n            uint\n        )\n    {\n        if (userType == 0)\n        {\n            return PayerRegistry[user].length;\n        }\n        else if (userType == 1)\n        {\n            return PayeeRegistry[user].length;\n        }\n    }\n\n    function getUserTransactionByID(\n        address user,\n        uint userType,\n        uint txID\n    ) \n        public\n        view\n        returns (\n            address,\n            address, \n            address,\n            uint,\n            bytes32,\n            bytes32\n        )\n    {\n        bytes32 status;\n        Transaction memory currentTransaction;\n        if (userType == 0)\n        {\n            currentTransaction = PayerRegistry[user][txID];\n            status = getTransactionStatus(user, txID);\n        } \n        else if (userType == 1)\n        {  \n            currentTransaction = PayerRegistry[\n                PayeeRegistry[user][txID].payer\n            ][\n                PayeeRegistry[user][txID].tx_index\n            ];\n            status = getTransactionStatus(currentTransaction.payer, PayeeRegistry[user][txID].tx_index);\n        }   \n\n        return (\n            currentTransaction.payer,\n            currentTransaction.payee,\n            currentTransaction.manager,\n            currentTransaction.amount,\n            status,\n            currentTransaction.ref\n        );\n    }   \n\n    /* function getAllUserTransactions(\n        address user,\n        uint userType,\n        uint offset,\n        uint limit\n    )\n        public\n        view\n        returns (\n            address[],\n            address[], \n            address[],\n            uint[],\n            bytes32[],\n            bytes32[]\n        )\n    {\n        uint count;\n\n        address[] memory payers = new address[](count);\n        address[] memory payees = new address[](count);\n        address[] memory managers = new address[](count);\n        uint[] memory amounts = new uint[](count);\n        bytes32[] memory statuses = new bytes32[](count);\n        bytes32[] memory refs = new bytes32[](count);\n\n        if (userType == 0)\n        {\n            if (PayerRegistry[user].length < limit)\n            {\n                count = PayerRegistry[user].length;\n            }\n            else\n            {\n                count = limit;\n            }\n\n            for (uint i = 0; i < count; i++)\n            {\n                payers[i] = PayerRegistry[user][offset + i].payer;\n                payees[i] = PayerRegistry[user][offset + i].payee;\n                managers[i] = PayerRegistry[user][offset + i].manager;\n                amounts[i] = PayerRegistry[user][offset + i].amount;\n                statuses[i] = getTransactionStatus(user, offset + i);\n                refs[i] = PayerRegistry[user][offset + i].ref;\n            }\n        } \n        else if (userType == 1)\n        {\n            if (\n                PayeeRegistry[user].length < limit\n            )\n            {\n                count = PayeeRegistry[user].length;\n            }\n            else\n            {\n                count = limit;\n            }\n\n            for (uint j = 0; j < count; j++)\n            {\n                payers[j] = PayerRegistry[\n                    PayeeRegistry[user][offset + j].payer\n                ][\n                    PayeeRegistry[user][offset + j].tx_index\n                ].payer;\n\n                payees[j] = PayerRegistry[\n                    PayeeRegistry[user][offset + j].payer\n                ][\n                    PayeeRegistry[user][offset + j].tx_index\n                ].payee;\n\n                managers[j] = PayerRegistry[\n                    PayeeRegistry[user][offset + j].payer\n                ][\n                    PayeeRegistry[user][offset + j].tx_index\n                ].manager;\n\n                amounts[j] = PayerRegistry[\n                    PayeeRegistry[user][offset + j].payer\n                ][\n                    PayeeRegistry[user][offset + j].tx_index\n                ].amount;\n\n                statuses[j] = getTransactionStatus(PayeeRegistry[user][offset + j].payer, PayeeRegistry[user][offset + j].tx_index);\n\n                refs[j] = PayerRegistry[\n                    PayeeRegistry[user][offset + j].payer\n                ][\n                    PayeeRegistry[user][offset + j].tx_index\n                ].ref;\n            }\n        }   \n        \n        \n        return (\n            payers,\n            payees,\n            managers,\n            amounts,\n            statuses,\n            refs\n        );\n    } */\n\n    function getTransactionStatus(\n        address payer,\n        uint txID\n    )\n        public\n        view\n        returns (\n            bytes32\n        )\n    {\n        bytes32 status = \"\";\n\n        if (PayerRegistry[payer][txID].status == TransactionStatus.PENDING)\n        {\n            status = \"Pending\";\n        }\n        else if (PayerRegistry[payer][txID].status == TransactionStatus.ACCEPTED)\n        {\n            status = \"Accepted\";\n        }\n        else if (PayerRegistry[payer][txID].status == TransactionStatus.CANCELLED)\n        {\n            status = \"Cancelled\";\n        }\n        else if (PayerRegistry[payer][txID].status == TransactionStatus.PAID)\n        {\n            status = \"Paid\";\n        }\n        else if (PayerRegistry[payer][txID].status == TransactionStatus.REFUNDED)\n        {\n            status = \"Refunded\";\n        }\n        \n        return status;\n    }\n\n    function releaseDeposit(\n        uint txID\n    )\n        public\n        onlyPayer(txID)\n        onlyWhen(txID < PayerRegistry[msg.sender].length)\n        onlyWhen(PayerRegistry[msg.sender][txID].status == TransactionStatus.ACCEPTED)\n    {       \n        PayerRegistry[msg.sender][txID].status = TransactionStatus.PAID;\n\n        address payee = PayerRegistry[msg.sender][txID].payee;\n        uint amount = PayerRegistry[msg.sender][txID].amount;\n\n        Deposits[payee] += amount;\n    }\n\n    function refundDeposit(\n        uint txID\n    )\n        public\n        onlyPayee(txID)\n        onlyWhen(txID < PayerRegistry[\n                PayeeRegistry[msg.sender][txID].payer\n            ].length\n        )\n        onlyWhen(PayerRegistry[\n                PayeeRegistry[msg.sender][txID].payer\n            ][\n                PayeeRegistry[msg.sender][txID].tx_index\n            ].status == TransactionStatus.ACCEPTED\n        )\n    {       \n        PayerRegistry[\n            PayeeRegistry[msg.sender][txID].payer\n        ][\n            PayeeRegistry[msg.sender][txID].tx_index\n        ].status = TransactionStatus.REFUNDED;\n\n        uint amount = PayerRegistry[\n            PayeeRegistry[msg.sender][txID].payer\n        ][\n            PayeeRegistry[msg.sender][txID].tx_index\n        ].amount;\n\n        Deposits[\n                PayeeRegistry[msg.sender][txID].payer\n            ] += amount;\n    }\n\n    function freezeContract()\n        public\n        onlyOwner\n    {\n        \n        is_frozen = true;\n    }\n\n    \n    \n    function withdrawDeposits()\n        public\n        hasDeposit\n    {\n        uint amount = Deposits[msg.sender];\n\n        Deposits[msg.sender] = 0;\n        if (!msg.sender.send(amount)) {\n            Deposits[msg.sender] = amount;   \n        }\n            \n    }\n    \n}\n",
  "sourcePath": "/home/sercan/Documents/development/vq-labs/vq-payments/contracts/VQPayments.sol",
  "compiler": {
    "name": "solc",
    "version": "0.4.21+commit.dfe3193c.Emscripten.clang"
  },
  "schemaVersion": "2.0.0",
  "updatedAt": "2018-04-10T13:35:38.303Z"
}